:020000040800F2
:1000000018080020312E0008A12C0008A32C00089D
:10001000A52C0008A72C0008A92C0008000000004F
:10002000000000000000000000000000AB2C0008F1
:10003000AD2C000800000000AF2C0008B12C000817
:10004000792E00087D2E0008812E0008852E0008DC
:10005000892E00088D2E0008912E0008952E00088C
:10006000992E00089D2E0008A12E0008A52E00083C
:10007000A92E0008AD2E0008B12E0008B52E0008EC
:10008000B92E0008BD2E0008C12E00080000000097
:10009000000000000000000000000000C52E000865
:1000A000C92E0008CD2E0008D12E0008D52E00083C
:1000B000D92E0008DD2E0008E12E0008E52E0008EC
:1000C000E92E0008ED2E0008F12E0008F52E00089C
:1000D000F92E0008FD2E0008012F00080000000086
:1000E000052F0008092F00080D2F00080000000050
:1000F000000000000000000000000000112F0008B8
:1001000000000000152F0008192F00081D2F0008FF
:1001100000000000000000000000000000000000DF
:10012000BD2C0008C72C0008D12C0008212F000886
:10013000252F000800000000000000000000000063
:10014000000000000000000000000000292F00084F
:100150002D2F0008312F0008352F0008392F0008F7
:100160003D2F0008412F00080000000000000000A3
:10017000000000000000000000000000000000007F
:1001800000000000452F00080000000000000000F3
:10019000492F000881B000200090DFF8600500685A
:1001A00050F48040DFF854150860DFF8500500680F
:1001B00010F480400090009800200090DFF8400587
:1001C000006850F08050DFF838150860DFF830051F
:1001D000006810F080500090009801B0704710B592
:1001E00086B004001422002101A800F0ADFA2068B6
:1001F000DFF81015884267D100200090DFF8FC047A
:10020000006850F48070DFF8F4140860DFF8EC0444
:10021000006810F480700090009800200090DFF8D3
:10022000E804006850F00100DFF8DC140860DFF833
:10023000D804006810F0010000900098032001909D
:10024000032002900020039001A9DFF8C00400F011
:1002500085FADFF8BC04DFF8BC1408600020DFF882
:10026000B41448600020DFF8AC1488600020DFF888
:10027000A414C8604FF48060DFF8981408614FF44C
:100280000060DFF8901448614FF40050DFF88414E8
:1002900088614FF48070DFF87C14C8610020DFF8BB
:1002A000741408620020DFF86C144862DFF86404FC
:1002B00000F07CFB002801D001F026F8DFF85404A0
:1002C000A063DFF85004846306B010BD10B586B09B
:1002D000040014220021684600F036FA2068DFF896
:1002E0003814884232D100200590DFF81C040068E1
:1002F00050F00200DFF810140860DFF80C0400680A
:1003000010F00200059005984FF440700090122004
:10031000019001200290032003900420049069467C
:10032000DFF8F80300F01AFA00200590DFF8D00398
:10033000006850F40010DFF8C8130860DFF8C0034D
:10034000006810F40010059005989DE02068DFF823
:10035000D013884241D100200590DFF8AC0300683B
:1003600050F00200DFF8A0130860DFF89C0300687B
:1003700010F00200059005984FF480600090122064
:10038000019001200290032003900420049069460C
:10039000DFF8880300F0E2F90820009012200190B5
:1003A0000120029003200390092004906946DFF8A1
:1003B0006C0300F0D3F900200590DFF844030068D7
:1003C00050F48000DFF838130860DFF83403006869
:1003D00010F480000590059856E02068DFF844137B
:1003E000884251D100200590DFF81C03006850F0CE
:1003F0000100DFF814130860DFF80C03006810F048
:1004000001000590059800200590DFF8FC020068C7
:1004100050F00200DFF8F0120860DFF8EC0200682C
:1004200010F00200059005984FF4807000901220A3
:10043000019001200290032003900420049069465B
:10044000DFF8C80200F08AF9102000901220019015
:100450000120029003200390092004906946DFF8F0
:10046000BC0200F07BF900200590DFF894020068E0
:1004700050F40000DFF888120860DFF8840200689A
:1004800010F400000590059806B010BD10B586B0B8
:1004900004001422002101A800F056F92068A249A6
:1004A00088422AD1002000909548006850F480408E
:1004B000934908609248006810F4804000900098CA
:1004C000002000909048006850F002008E490860BB
:1004D0008D48006810F00200009000984FF46040D2
:1004E0000190022002900020039003200490052038
:1004F000059001A9894800F031F906B010BD81B01E
:1005000001688A4A91420DD1002100917B49096816
:1005100051F48031794A11607849096811F48031C9
:100520000091009901B0704710B586B00400142204
:10053000002101A800F008F920687C4988421BD1FD
:10054000002000907048006850F001006E4908607B
:100550006D48006810F00100009000980C20019098
:1005600002200290002003900020049003200590B8
:1005700001A9664800F0F2F806B010BD10B586B0CB
:1005800004001422002101A800F0DEF82068684968
:10059000884256D1002000905848006850F0100062
:1005A000564908605548006810F010000090009807
:1005B000002000905448006850F001005249086043
:1005C0005148006810F00100009000984FF4C0609E
:1005D0000190022002900020039003200490072045
:1005E000059001A9494800F0B9F8524852490860FD
:1005F0005FF000605049486000204F49886000204B
:100600004D49C8604FF480604B49086100204A4959
:10061000486100204849886100204749C86100209E
:1006200045490862002044494862434800F0BEF949
:10063000002801D000F068FE3F48A0633E48846374
:1006400059E020683D49884255D1002000902B4850
:10065000006850F02000294908602848006810F020
:10066000200000900098002000902748006850F07B
:100670000100254908602448006810F0010000903E
:1006800000984FF4C0500190022002900020039087
:10069000032004900820059001A91C4800F05EF892
:1006A0002748284908605FF02060264948600020FC
:1006B0002449886000202349C8604FF480602149A4
:1006C000086100201F49486100201E498861002000
:1006D0001C49C86100201B49086200201949486272
:1006E000184800F063F9002801D000F00DFE15480D
:1006F000A0631448846306B010BD00004438024073
:1007000040380240002001403038024000000240E2
:1007100010640240800000200054004000040240A9
:1007200000580040005C004000380040004001409C
:100730000010014040640240E0000020001401402D
:10074000286402404001002010B5044610460A46C5
:100750000146204600F0DAFD204610BDF8B4002323
:10076000002400260025102D80F0FA800122AA40E6
:1007700013000A681A4014009C4240F0EF800A7986
:1007800012F00302012A04D00A7912F00302022AAD
:1007900024D187685FF0030C2A00D2B252001CFA01
:1007A00002FC37EA0C07D1F80CC02A00D2B2520082
:1007B0001CFA02FC5CEA0707876042685FF0010CE4
:1007C0001CFA05FC32EA0C02D1F804C0CCF3001C80
:1007D0001CFA05FC5CEA0202160046600A7912F077
:1007E0000302032A14D0C7685FF0030C2A00D2B2B8
:1007F00052001CFA02FC37EA0C07D1F808C02A00A4
:10080000D2B252001CFA02FC5CEA07073E00C66046
:100810000A7912F00302022A1ED12A00D20800EB44
:100820008202176A5FF00F0C15F00702D2B2920035
:100830001CFA02FC37EA0C07D1F810C015F00702C9
:10084000D2B292001CFA02FC5CEA07073E002A00C2
:10085000D20800EB8202166207685FF0030C2A00E0
:10086000D2B252001CFA02FC37EA0C0791F804C01D
:100870001CF0030C2A00D2B252001CFA02FC5CEA03
:1008800007073E0006604A6812F4403F66D0002227
:1008900000923B4A126852F48042394F3A60384A1B
:1008A000126812F480420092009A364A2F00BF0864
:1008B00052F827705FF00F0C15F00302D2B29200CD
:1008C0001CFA02FC37EA0C072F4A904201D100269D
:1008D00014E02E4A904201D101260FE02C4A9042AA
:1008E00001D102260AE02B4A904201D1032605E0FD
:1008F000294A904201D1042600E00726F6B215F0FD
:100900000302D2B29200964037431E4A2E00B60828
:1009100042F82670214A1268A2434E68F60200D5BA
:1009200022431E4E32601E4E3668A6434F68BF02F9
:1009300000D526431A4A16601A4A1268A2434F6825
:10094000BF0300D52243174E3260174E3668A643C8
:100950004F68FF0300D52643134A16606D1C02E75B
:10096000F1BC70471300DBB2002B03D00B009BB22D
:10097000836103E00B009BB21B048361704700009E
:1009800044380240083801400000024000040240A0
:1009900000080240000C024000100240083C0140E8
:1009A0000C3C0140043C0140003C014070B5040097
:1009B000002600F0F3FC0500002C01D1012065E0C9
:1009C000606A0028022084F83500002084F8340092
:1009D00020680068400840002168086020680068BE
:1009E000C0070BD500F0DAFC401B0628F6D3202008
:1009F0006065032084F83500032047E02068016823
:100A0000DFF8C402014060680143A0680143E06868
:100A100001432069014360690143A0690143E06922
:100A20000143206A0143606A042803D1E06A01435C
:100A3000206B01432068016020684669F608F600D3
:100A4000606A0643606A042810D1A06A0643E06A1F
:100A500000280BD0200000F03DF9002806D04020EF
:100A60006065012084F8350001200FE020684661B0
:100A7000200000F010F901003F22E06D82408A6002
:100A800000206065012084F83500002070BDF8B5B5
:100A9000040000200090DFF8340200684FF4165183
:100AA000B0FBF1F5A66D37680821E06D81400F427B
:100AB00011D02068006840070DD52068006830F02C
:100AC0000400216808600821E06D8140B160606D1C
:100AD00050F001006065E06D3900C140C8070BD5DA
:100AE00020684069000607D50121E06D8140B160B2
:100AF000606D50F0020060650421E06D81400F429E
:100B00000BD020680068800707D50421E06D814084
:100B1000B160606D50F0040060651021E06D8140AF
:100B20000F422DD020680068000729D51021E06D04
:100B30008140B16020680068400311D520680068DA
:100B4000000306D4206C00281AD02000216C8847AE
:100B500016E0A06C002813D02000A16C88470FE09D
:100B600020680068C00505D42068006830F00800DF
:100B700021680860206C002802D02000216C884782
:100B80002021E06D81400F4260D020680068C006DF
:100B90005CD52021E06D8140B16094F835000528D6
:100BA00028D12068006830F01600216808602068AD
:100BB000406930F0800021684861206C002802D133
:100BC000A06C002805D02068006830F0080021687B
:100BD00008603F21E06D8140B160012084F835005C
:100BE000002084F83400206D002802D02000216D00
:100BF00088474FE020680068400311D520680068EE
:100C0000000306D4606C002820D02000616C884767
:100C10001CE0E06B002819D02000E16B884715E04C
:100C200020680068C0050BD42068006830F0100010
:100C300021680860012084F83500002084F8340021
:100C4000E06B002802D02000E16B8847606D00282F
:100C500020D0606DC00717D5052084F835002068C6
:100C6000006840084000216808600098401C00901F
:100C7000854203D320680068C007F6D4012084F8B9
:100C80003500002084F83400E06C002802D02000F9
:100C9000E16C8847F1BD017801F0FF01103918229D
:100CA000B1FBF2F10A4A525CC265042905D302681D
:100CB000920A9202121D826503E00268920A920271
:100CC0008265806D704700003F8010F07800002042
:100CD000402E000810B402000020936A9169002998
:100CE00016D1002B05D0022B03D008D3032B0DD037
:100CF0000DE0D16AC90101D50121080035E0D16AB2
:100D0000B1F1C07F01D1012108002EE02DE02CE0DF
:100D10009169B1F5005F18D1002B05D0022B03D0EB
:100D200005D3032B09D00FE0012108001DE0D16A93
:100D3000C90101D50121080017E0D16AB1F1C07FD6
:100D400001D10121080010E00FE01900002902295B
:100D500002D9C91E03D008E00121080005E0D16ACC
:100D6000C90101D501210800FFE7C0B210BC7047DE
:100D700080B500F019FB00F017F800F02FFA00F032
:100D800005FA00F0CFF800F0BDF900F0DDF900F051
:100D900069F800F0F8F800F021F900F044F900F0EB
:100DA00071F900F090FBFCE780B592B03022002191
:100DB00006A8FFF7C9FC1422002101A8FFF7C4FC14
:100DC00000200090DFF8E004006850F08050DFF869
:100DD000D8140860DFF8D004006810F0805000904C
:100DE000009800200090DFF8C404006830F4404010
:100DF00050F40040DFF8B4140860DFF8B004006875
:100E000010F44040009000980220069001200990C4
:100E100010200A9002200C9000200D9008200E90C7
:100E200048200F90022010900420119006A800F096
:100E3000FDFB002801D000F067FA0F20019002208E
:100E40000290002003904FF4805004900020059001
:100E5000022101A800F0F8FD002801D000F054FAAA
:100E600013B000BDF8B5102200216846FFF76CFCF6
:100E7000DFF83C04DFF83C1408600020DFF834148D
:100E800048600020DFF82C1488600120DFF824146B
:100E900008610120DFF81C1408760020DFF8141424
:100EA00081F820000020DFF80C14C862DFF8080485
:100EB000DFF8001488620020DFF8F813C860022011
:100EC000DFF8F013C8610120DFF8E81381F8300083
:100ED0000120DFF8E0134861DFF8D80300F082FE5C
:100EE000002801D000F010FA0020009001200190AD
:100EF000072002906946DFF8BC0300F0A6FE002838
:100F000001D000F001FA0120009002200190694612
:100F1000DFF8A00300F099FE002801D000F0F4F9FA
:100F200005B000BD80B5DFF89403DFF894130860C6
:100F3000DFF89003DFF8881348600020DFF88013A3
:100F400088600020DFF87813C8604FF48040DFF835
:100F5000701308610020DFF8681348610020DFF893
:100F6000601388610020DFF85813C8610020DFF8A3
:100F700050130862DFF8480300F0DEFF002801D0BC
:100F800000F0C2F901BD80B5DFF83C03DFF83C1387
:100F90000860DFF83003DFF8341348600020DFF822
:100FA0002C1388600020DFF82413C8604FF48040C1
:100FB000C64908610020C54948610020C3498861CD
:100FC0000020C249C8610020C0490862BF4800F043
:100FD000B3FF002801D000F097F901BD80B5BC48EF
:100FE000BC490860B748BB4948600020B9498860DF
:100FF0000020B849C8604FF48040B649086100201D
:10100000B44948610020B34988610020B149C861F2
:101010000020B0490862AF4800F08EFF002801D0E0
:1010200000F072F901BD80B5AB48AC4908604FF4DF
:101030008270AA4948600020A84988600020A7491A
:10104000C8600020A54908610020A44948614FF408
:101050000070A24988610020A049C86100209F4912
:10106000086200209D49486200209C4988620A204D
:101070009A49C862994801F059F8002801D000F057
:1010800043F901BD00B587B01C2200216846FFF777
:101090005BFB934893490860002092494860002018
:1010A000904988604FF6FF708E49C86000208D49D6
:1010B000086100208B4988618A4801F09FF8002868
:1010C00001D000F021F96020009000200190002064
:1010D00002900020049000226946824801F0C5F881
:1010E000002801D000F010F9042269467D4801F083
:1010F000BCF8002801D000F007F97A48FFF714FA8D
:1011000007B000BD80B57848784908605FF4E130E9
:101110007649486000207549886000207349C8609E
:101120000020724908610C207049486100206F4915
:10113000886100206D49C8616C4801F017FA0028E9
:1011400001D000F0E1F801BD80B569486949086047
:101150005FF4E130674948600020664988600020FC
:101160006449C8600020634908610C2061494861F6
:1011700000206049886100205E49C8615D4801F037
:10118000F5F9002801D000F0BFF801BD80B50020BE
:1011900000905948006850F480005749086056484C
:1011A000006810F480000090009800220021382090
:1011B00001F07AFB382001F08CFB0022002139205D
:1011C00001F072FB392001F084FB002200213A205B
:1011D00001F06AFB3A2001F07CFB01BD80B586B0CE
:1011E000142200216846FFF7AFFA0020059042481C
:1011F000006850F00400404908603F48006810F063
:10120000040005900598002005903B48006850F0C8
:101210000100394908603848006810F00100059065
:101220000598002005903448006850F002003249CB
:1012300008603148006810F002000590059800220F
:101240004FF400412D48FFF78DFB4FF40040009014
:10125000002001900020029069462948FFF77EFA9D
:101260000720009000200190012002906946254847
:10127000FFF774FA4FF48050009000200190002096
:10128000029069461F48FFF769FA4FF4004000904A
:101290000120019000200290002003906946174829
:1012A000FFF75CFA07B000BD403802400070004014
:1012B00000200140F40200200100000F0054004013
:1012C000F8010020A0860100005800404C020020D8
:1012D000005C0040A002002000380040A001002077
:1012E000004001403C030020001001408403002026
:1012F00000140140C80300203038024000000240C2
:10130000000802400004024072B6FEE762F30F22BA
:1013100062F31F42401810F0030308D0C91A1FD30C
:10132000DB0748BF00F8012D28BF20F8022D13006D
:1013300030B414461546103928BF20E93C00FAD8CD
:10134000490728BF20E90C0048BF40F8042D890058
:1013500028BF20F8022D48BF00F8012D30BC70478F
:10136000C91818BF00F8012DCB0728BF00F8012DC0
:1013700070470EE002684368024408305FEAC37CAD
:1013800044BF4B445B1E52F804CB43F804CB091F07
:10139000F9D150F8041B0029ECD1704701480068CE
:1013A000704700BF0C04002080B50E48006850F460
:1013B00000700C4908600B48006850F480600949CF
:1013C00008600848006850F48070064908600320EF
:1013D00001F064FA002001F099FAFEF7DBFE00202C
:1013E00002BD0000003C024010B4020008000100F1
:1013F0007FF0030309B2994201D100B23CE0010041
:101400007FF0020309B2994207D100217B4B1400FF
:10141000E4B22401195500B22EE001007FF001036F
:1014200009B2994207D10021744B1400E4B224019F
:10143000195500B220E001005FF0FF3309B2994274
:1014400007D101216D4B1400E4B22401195500B2FB
:1014500012E0010009B200290DD468491300DBB283
:101460001B01194448800121644B1400E4B224019B
:10147000195500B200E000B210BC704700210020F6
:101480000100C9B202291DDA5C490200D2B2120180
:10149000895601290DDB59490200D2B212011144CB
:1014A0004968491C554A0300DBB21B011A445160CC
:1014B00006E00021514A0300DBB21B011A445160CF
:1014C000401CDDE7704710B5002000242000C0B2AA
:1014D00002280CDA7FF003012000C0B2474A230043
:1014E000DBB21B011A44D2689047641CEEE710BDC2
:1014F000704770477047704770477047704738B5FE
:1015000004000D00290009B22000C0B2FFF76CFFF3
:1015100010F1030F02D1280000B26EE038483749BD
:101520002200D2B212011144B1F902101C2211FBA7
:1015300002F10844007900281DD132480068304982
:101540002E4A2300DBB21B011A44B2F902201C23ED
:1015500012FB03F211448968884729482749220071
:10156000D2B212011144B1F902101C2211FB02F196
:10157000084401210171224820492200D2B21201FF
:101580001144B1F902101C2211FB02F10844C06899
:101590001A492200D2B2120111444968884216D277
:1015A000002016492200D2B21201114448601548A9
:1015B00000681349114A2300DBB21B011A44B2F937
:1015C00002201C2312FB03F21144896888470B4850
:1015D0002100C9B209010844801C0949074A2300B7
:1015E000DBB21B011A44B2F902201C2312FB03F2E6
:1015F000114489698847280000B232BD04000020E8
:10160000240000201004002038B504000D0029003B
:1016100009B22000C0B2FFF7E7FE10F1030F02D1BC
:10162000280000B201E0280000B232BDF8B5040085
:10163000002C01D10120F2E12078C0076FD5DFF83E
:10164000E003006810F00C0004280BD0DFF8D00392
:10165000006810F00C0008280ED1DFF8C8030068FD
:10166000400209D5DFF8C0030068800357D56068E1
:10167000002854D10120D2E16068B0F5803F08D144
:10168000DFF8A403006850F48030DFF89C13086092
:1016900024E06068B0F5A02F10D1DFF88C0300685B
:1016A00050F48020DFF880130860DFF87C030068C6
:1016B00050F48030DFF8701308600FE0DFF8680343
:1016C000006830F48030DFF860130860DFF85803FA
:1016D000006830F48020DFF850130860606800284C
:1016E0000ED0FFF75BFE0500DFF83C0300688003C7
:1016F00015D4FFF753FE401B6528F5D303208EE178
:10170000FFF74CFE0500DFF820030068800306D5D4
:10171000FFF744FE401B6528F5D303207FE12078C6
:10172000800754D5DFF8F802006810F00C0F0BD0DA
:10173000DFF8EC02006810F00C00082818D1DFF880
:10174000E4020068400213D4DFF8DC02006880077E
:1017500004D5E068012801D0012060E1B2480068AA
:1017600030F0F800216950EAC100AF4908602EE06E
:10177000E06800281AD00120AC490860FFF70EFE8F
:101780000500A9480068800706D4FFF707FE401B44
:101790000328F6D3032042E1A348006830F0F800A4
:1017A000216950EAC100A049086010E000209F496B
:1017B0000860FFF7F3FD05009B480068800706D529
:1017C000FFF7ECFD401B0328F6D3032027E1207828
:1017D000000724D56069002810D0012094490860D2
:1017E000FFF7DCFD050093480068800717D4FFF77A
:1017F000D5FD401B0328F6D3032010E100208C49BF
:101800000860FFF7CBFD05008A480068800706D511
:10181000FFF7C4FD401B0328F6D30320FFE0207828
:10182000400740F18080002783480068C0000FD443
:10183000002000908048006850F080507E49086089
:101840007D48006810F0805000900098012007004B
:101850007A480068C00513D47848006850F4807056
:1018600076490860FFF79AFD050074480068C005D6
:1018700006D4FFF793FD401B0328F6D30320CEE0E8
:10188000A068012806D16E48006850F001006C493C
:1018900008601BE0A06805280CD16948006850F07A
:1018A0000400674908606648006850F00100644918
:1018B00008600BE06248006840084000604908602A
:1018C0005F48006830F004005D490860A0680028A7
:1018D0000FD0FFF763FD050059480068800718D452
:1018E000FFF75CFD401B41F289318842F4D30320AD
:1018F00095E0FFF753FD050051480068800708D5C3
:10190000FFF74CFD401B41F289318842F4D303209C
:1019100085E03800C0B2012805D14748006830F0A2
:10192000805045490860A069002877D03C4800688D
:1019300010F00C00082845D0A069022831D1002001
:1019400040490860FFF72AFD07003748006880011A
:1019500006D5FFF723FDC01B0328F6D303205EE066
:10196000E169206A0143606A51EA8011A06A400877
:10197000401E51EA0041E06A51EA006129480160D5
:10198000012030490860FFF709FD0500264800687E
:10199000800143D4FFF702FD401B0328F6D3032048
:1019A0003DE0002027490860FFF7F8FC05001E48CD
:1019B0000068800132D5FFF7F1FC401B0328F6D305
:1019C00003202CE0A069012801D1012027E015485F
:1019D00000680600A06901281ED016F48000E169A5
:1019E000884219D116F03F00216A884214D147F687
:1019F000C0703040616AB0EB811F0DD116F44030E9
:101A0000A16A4908491EB0EB014F05D116F070607C
:101A1000E16AB0EB016F01D0012000E00020F2BDCF
:101A200008380240043802400038024000004742B3
:101A3000800E474274380240403802400070004037
:101A4000703802406000474270B504000D00002C61
:101A500001D101209DE05C48006810F00700A84219
:101A600009D2594805705848006810F00700A8428C
:101A700001D001208DE02078800719D5207840071B
:101A800005D55248006850F4E0505049086020786D
:101A9000000705D54D48006850F460404B49086088
:101AA0004A48016831F0F001A068014347480160ED
:101AB0002078C00736D56068012805D14448006801
:101AC000800313D4012064E06068022802D06068BB
:101AD000032805D13E480068800107D4012058E062
:101AE0003B480068800701D4012052E03748016874
:101AF000890889006068014334480160FFF74EFCA3
:101B000006003248006810F00C006168B0EB810FED
:101B100008D0FFF743FC801B41F289318842F0D3A3
:101B2000032036E02848006810F00700854209D2FB
:101B3000254805702448006810F00700A84201D02D
:101B4000012026E02078400707D52048016831F4BD
:101B5000E051E06801431D4801602078000708D586
:101B60001A48006830F46040216950EAC100174902
:101B7000086000F0F1FE1749144A1268C2F303121C
:101B8000895CC840144908601448006800F0BEFE33
:101B9000002070BD10480068704780B5FFF7FAFF5D
:101BA0000F490A4A1268C2F38222895CC84002BD0A
:101BB00080B5FFF7EFFF0A49044A1268C2F34232C8
:101BC000895CC84002BD0000003C02400838024069
:101BD00000380240202E000878000020000000207D
:101BE000702E000838B504000025002C01D101201A
:101BF0002AE0A06ADFF82C138842206C002807D165
:101C00002000FEF7ECFA00206064002084F83C001D
:101C1000206CC00611D4206C30F4885050F00200C3
:101C20002064200000F0D0F800206064206C30F0C8
:101C3000020050F00100206401E0012005000020B6
:101C400084F83C002800C0B232BD38B40200002045
:101C5000009092F83C00012801D10220B2E001205E
:101C600082F83C0008680A2818D31068C368072463
:101C700008680A38032510FB05F08440A343106868
:101C8000C3601068C3688C6808680A38032510FBB5
:101C900005F0844023431068C36013E010680369B3
:101CA00007240D6803204543AC40A343106803613B
:101CB000106803698C680D6803204543AC402343DA
:101CC000106803614868072818D21068436B1F2406
:101CD0004868401E052510FB05F08440A3431068AA
:101CE00043631068436B0C884868401E052510FB51
:101CF00005F0844023431068436333E048680D28AF
:101D000018D21068036B1F244868C01F052510FBFC
:101D100005F08440A343106803631068036B0C88CC
:101D20004868C01F052510FB05F084402343106858
:101D3000036317E01068C36A1F2448680D3805253F
:101D400010FB05F08440A3431068C3621068C36AA7
:101D50000C8848680D38052510FB05F084402343A6
:101D60001068C362724B1068724CA04206D10868BA
:101D7000122803D1586850F48000586010686D4CE8
:101D8000A0421BD10868102802D00868112815D17C
:101D9000586850F400005860086810280ED1624856
:101DA0000068624CB0FBF4F40A20444300940098AD
:101DB000002803D00098401E0090F8E7002082F829
:101DC0003C00002032BC7047594A516831F4403120
:101DD0005160536841680B4353600168496831F4AE
:101DE00080710368596001684968036951EA0321F9
:101DF000036859600168496831F0407103685960AF
:101E000001684B6881680B4301684B600168896811
:101E100031F400610368996001688B68C1680B4305
:101E200001688B60816A3F4B994218D001688968CC
:101E300031F070610368996001688B68816A0B43B7
:101E400001688B600168896831F0405103689960CE
:101E500001688B68C16A0B4301688B600BE0016805
:101E6000896831F07061036899600168896831F0B0
:101E70004051036899600168896831F00201036884
:101E8000996001688968037E51EA4301036899609B
:101E900090F82010002914D00168496851F40061BD
:101EA000036859600168496831F46041036859600A
:101EB00001684968436A5B1E51EA4331036859600F
:101EC00005E00168496831F4006103685960016800
:101ED000C96A31F470010368D9620168C96AC369CB
:101EE0005B1E51EA03510368D9620168896831F4C5
:101EF0000071036899600168896890F8303051EA90
:101F00004321036899600168896831F4806103683E
:101F1000996001688968436951EA8321036899607F
:101F2000704700000100000F7800002040420F00C1
:101F3000002301400020014070B50400002C01D1B5
:101F40000120E5E094F83D00002805D1002084F848
:101F50003C002000FEF7BAF9242084F83D002068F8
:101F6000006840084000216808602068006850F45C
:101F70000040216808602068006830F40040216853
:101F80000860FFF70AFE01006068DFF888219042D0
:101F900008D2DFF88401814201D2012000E0002054
:101FA000C0B207E0DFF87401814201D2012000E0F5
:101FB0000020C0B2012801D10120A9E0DFF86001B2
:101FC000B1FBF0F22068406880098001104323686B
:101FD00058602068006A6368DFF83851AB4201D26C
:101FE000531C08E04FF4967303FB02F34FF47A7529
:101FF000B3FBF5F35B1C800980011843236818626A
:102000002068C3696068DFF80C51A84214D2481EEA
:1020100065686D00B0FBF5F0401C0005000D04285C
:1020200001D204253EE0481E65686D00B0FBF5F561
:102030006D1C2D052D0D35E0A068002809D14D1E21
:10204000666803204643B5FBF6F0401C0005000D12
:102050000AE04D1E666819204643B5FBF6F0401CA9
:102060000005000D50F48040000501D1012519E064
:10207000A068002809D14D1E666803204643B5FBC1
:10208000F6F56D1C2D052D0D0AE04D1E6668192014
:102090004643B5FBF6F56D1C2D052D0D55F4804519
:1020A00055F40045DFF87C0003402B432068C361F2
:1020B0002068036833F0C003E0690343206A0343E8
:1020C0002068036020688368DFF85C0003402069B3
:1020D0000343E0680343206883602068C3681B0AE9
:1020E0001B02A0690343606903432068C360206842
:1020F000006850F001002368186000202064202050
:1021000084F83D0000202063002084F83E00002079
:1021100070BD0000A186010080841E0000093D0002
:1021200040420F000030FFFF007CFFFF10B50400AD
:10213000002C01D101205FE0606A002806D16068B0
:10214000B0F5827F06D00020E06103E0002020612E
:10215000002060610020A06294F85100002805D1A1
:10216000002084F850002000FEF790F9022084F847
:1021700051002068006830F0400021680860606805
:1021800010F48270A16811F404410843E16811F46D
:1021900000610843217C11F002010843217D11F008
:1021A00001010843A16911F400710843217F11F076
:1021B0003801084394F8201011F080010843A16A07
:1021C00011F40051084321680860A069000C10F068
:1021D000040094F8241011F01001084321684860AD
:1021E0002068C06930F400602168C8610020606523
:1021F000012084F85100002010BD000010B504003B
:10220000002C01D101202FE094F83D00002805D1D9
:10221000002084F83C002000FEF771F9022084F8C9
:102220003D00211D206800F09EF8012084F8460042
:10223000012084F83E00012084F83F00012084F84A
:102240004000012084F84100012084F84200012070
:1022500084F84300012084F84400012084F84500FC
:10226000012084F83D00002010BDF8B504000D00E9
:102270001700002694F83C00012801D1022071E0EB
:10228000012084F83C003800002806D004281BD028
:10229000082831D00C2846D05DE02900206800F0E5
:1022A000A4F82068806950F00800216888612068DF
:1022B000806930F00400216888612068816928699C
:1022C00001432068816148E02900206800F0BAF8E5
:1022D0002068806950F40060216888612068806906
:1022E00030F480602168886120688069296950EA3B
:1022F00001202168886130E02900206800F0D4F8CE
:102300002068C06950F008002168C8612068C06971
:1023100030F004002168C8612068C1692869014360
:102320002068C16119E02900206800F0EEF82068FB
:10233000C06950F400602168C8612068C06930F449
:1023400080602168C8612068C069296950EA01205D
:102350002168C86101E001200600002084F83C00EB
:102360003000C0B2F2BD0368DFF8E42190420BD028
:10237000B0F1804F08D0774A904205D0764A90421B
:1023800002D0764A904203D133F070034A68134377
:102390006F4A904214D0B0F1804F11D06D4A9042F4
:1023A0000ED06D4A90420BD06C4A904208D06C4AD5
:1023B000904205D06B4A904202D06B4A904203D1C2
:1023C00033F44073CA68134333F080034A691343FC
:1023D00003608A68C2620A6882625D4A904201D1E3
:1023E0000A69026301224261704730B4026A5208EE
:1023F00052000262046A4568836933F070039B08E7
:102400009B000A68134334F002048A681443504A5C
:10241000904205D134F00804CA68144334F004042F
:102420004B4A904207D135F4807535F400754A69FE
:1024300015438A691543456083614A6842630462B3
:1024400030BC704730B4026A32F010020262036A94
:102450004468826932F4E04232F440720D6852EA14
:10246000052233F020038D6853EA0513384DA84246
:1024700006D133F08003CD6853EA051333F04003EF
:10248000334DA84209D134F4806434F400644D69BA
:1024900054EA85048D6954EA8504446082614D687C
:1024A0008563036230BC704730B4026A32F48072D4
:1024B0000262046A4568C36933F070039B089B009D
:1024C0000A68134334F400748A6854EA0224204AE8
:1024D000904206D134F40064CA6854EA022434F409
:1024E00080641B4A904209D135F4805535F400557B
:1024F0004A6955EA02158A6955EA02154560C361C1
:102500004A68C263046230BC704730B4026A32F475
:1025100080520262036A4468C26932F4E04232F4D3
:1025200040720D6852EA052233F400538D6853EA75
:102530000533074DA84204D134F480444D6954EA70
:1025400085144460C2614D680564036230BC704705
:10255000000001400004004000080040000C004062
:1025600000400140004401400048014010B5040013
:10257000002C01D1012033E0A0690028FFD194F89C
:102580003D00002805D1002084F83C002000FDF724
:10259000F5FF242084F83D002068C06830F4005026
:1025A0002168C860200000F01CF82068006930F441
:1025B0009040216808612068406930F02A00216855
:1025C00048612068C06850F400502168C86000204D
:1025D0002064202084F83D00202084F83E00002064
:1025E00010BD2DE9F04104002068016931F440512B
:1025F000E068014320680161A568206905436069BE
:102600000543E06905432068C168664801402943E5
:102610002068C1602068416931F44071A0690143BC
:102620002068416120686049884203D020685F4982
:10263000884203D1FFF7BCFA060002E0FFF7ADFACB
:102640000600E069B0F5004F55D11920A0FB060146
:1026500062680223A3FB022300F0C8F96421B0FBE7
:10266000F1F71920A0FB060162680223A3FB0223F5
:1026700000F0BCF980461920A0FB06016268022325
:10268000A3FB022300F0B2F96421B0FBF1F17FF06B
:10269000630000FB0181C80032306421B0FBF1F01F
:1026A000400010F4F87010EB071007001920A0FB91
:1026B000060162680223A3FB022300F097F980461B
:1026C0001920A0FB060162680223A3FB022300F08D
:1026D0008DF96421B0FBF1F17FF0630000FB018113
:1026E000C80032306421B0FBF1F010F00700C019CF
:1026F0002168886053E01920A0FB0601626804236A
:10270000A3FB022300F072F96421B0FBF1F719205A
:10271000A0FB060162680423A3FB022300F066F914
:1027200080461920A0FB060162680423A3FB022354
:1027300000F05CF96421B0FBF1F17FF0630000FB75
:102740000181080132306421B0FBF1F010F0F0009B
:1027500010EB071007001920A0FB06016268042394
:10276000A3FB022300F042F980461920A0FB0601DA
:1027700062680423A3FB022300F038F96421B0FB54
:10278000F1F17FF0630000FB018108013230642128
:10279000B0FBF1F010F00F00C01921688860BDE8AF
:1027A000F0810000F369FFFF0010014000140140B8
:1027B00010F00703DFF834110A684FF6FF010A40F2
:1027C00052EA0322DFF828110A43DFF820110A60D9
:1027D0007047DFF818010068C0F30220704701005D
:1027E00049B200290AD4012210F01F018A40DFF803
:1027F000041103005BB25B0941F82320704710B459
:10280000020052B2002A05D40A013B4B040064B214
:102810001A5508E00A01394B040064B214F00F04A1
:10282000234403F8042C10BC704770B4030013F069
:102830000704D4F10700052801D3042001E0D4F1F6
:102840000700251D072D01D2002500E0E51E012609
:1028500016FA00F0401E0140A940012010FA05F5CB
:102860006D1E2A401143080070BC704710B504006B
:10287000601EB0F1807F01D301200EE0601E204970
:1028800008600F215FF0FF30FFF7B9FF00201D49FE
:10289000086007201C490860002010BD10B5040026
:1028A0002000FFF785FF10BD2DE9F04104000D0069
:1028B00016000027FFF78DFF8046320029004046B2
:1028C000FFF7B3FF0100200040B2FFF798FFBDE81B
:1028D000F08110B50400200040B2FFF780FF10BD6A
:1028E00010B504002000FFF7C1FF10BD0CED00E0A3
:1028F0000000FA0500E100E000E400E018ED00E06F
:1029000014E000E018E000E010E000E010B5040082
:102910004FF47A700D490978B0FBF1F00C49096861
:10292000B1FBF0F0FFF7DCFF002801D001200CE044
:10293000102C09D2002221005FF0FF30FFF7B4FF16
:1029400004480460002000E0012010BD7C0000204D
:102950007800002000000020F0B5002400250026AB
:1029600000271E48006810F00C00002804D004283E
:1029700004D0082804D02FE019482EE019482CE094
:102980001948006810F03F00040017480068400232
:102990000CD515480068C0F388101249A1FB00014E
:1029A0002200002300F022F805000BE00E4800682A
:1029B000C0F388100A49A1FB00012200002300F0A7
:1029C00015F8050008480068C0F30140401C4000AD
:1029D0000600B5FBF6F000E00148F0BD0838024003
:1029E0000024F40000127A0004380240BBBBE1B1BD
:1029F000B2F5803F80F07E80022A1ED98C46B1FB62
:102A0000F2F102FB11C31B0443EA1043B3FBF2FCD7
:102A100002FB1C3380B240EA0343B3FBF2F002FB3B
:102A2000103240EA0C4000237047022A05D9844640
:102A3000B0FBF2F002FB10C270474AB105D100F0C2
:102A4000010249085FEA3000704700220023704706
:102A500000F0E4B80B000200002100207047904213
:102A600071EB030CF6D3B3F5803F2FD2F0B5B3FA78
:102A700083F7B1FA81F4A7F10F0E3D1B5340CEF15D
:102A8000200602FA0EF2F3415340B5F10F0746D883
:102A90000F3C2C444140C4F12006A040F14141408C
:102AA000B1FBF3F603FB1611A2FB0645001BA9417F
:102AB00002D2761E8018594180EA010221FA0EF3F3
:102AC00062FA0EF200215A403046F0BD30B4B1FB3C
:102AD000F3FC03FB1C11A2FB0C45001BA94103D214
:102AE000ACF1010C8018594130BC02460B466046DF
:102AF00000217047B2F1807F65D3F0B5B2FA82F75A
:102B0000B1FA81F4C7F10F063D1B22FA06F307F173
:102B1000110EF24120355A40B5F10F07B8D94140A6
:102B2000C4F12006A040F1414140B1FBF3FC03FB9E
:102B30001C11A2FB0C45001BA94103D2BCF1010CE6
:102B4000801859410F2F12D30F3FC90341EA50415A
:102B5000B1FBF3F603FB1611A2FB0645D4EBC03024
:102B6000A94102D2761E8018594146EACC3C07B3EF
:102B70004140C7F12006B840F1414140B1FBF3F6B6
:102B800003FB1611A2FB0645001BA94102D2761ECB
:102B90008018594180EA010221FA0EF3C7F120049E
:102BA00062FA0EF20CFA07F05A402CFA04F13043A4
:102BB000F0BD80EA010221FA0EF3002162FA0EF262
:102BC00060465A40F0BD8C46B1FBF2F102FB11C3E6
:102BD0001B0243EA1063B3FBF2FC02FB1C331B0233
:102BE0004CEA002043EA1063B3FBF2FC02FB1C3307
:102BF0001B024CEA002043EA1063B3FBF2FC02FB29
:102C00001C331B024CEA002043EA1063B3FBF2FCC6
:102C100002FB1C324CEA0020002370477047000082
:102C2000100000000100010000000000482E000814
:102C3000FF1400080100010000000000502E0008F1
:102C400009160008582E000800000000F1140008C2
:102C500064000000F314000801000000F5140008EF
:102C6000602E000800000000F71400086400000057
:102C7000F314000802000000F9140008682E000890
:102C800000000000FB14000864000000F3140008BA
:102C900000000000FD1400080024F4000100000002
:102CA000FEE7FEE7FEE7FEE7FEE770477047704786
:102CB00080B500F019F8FEF7E1FB01BD80B50748CB
:102CC000FDF7E5FE01BD80B50548FDF7E0FE01BD5D
:102CD00080B50448FDF7DBFE01BD00008000002048
:102CE00040010020E0000020034800680349097803
:102CF00040180149086070470C0400207C00002047
:102D000030B4002512E050F8042BD30744BF4A44E6
:102D1000521E091F042942F8045BFAD213468C079D
:102D200044BF15809B1CC90748BF1D7050F8041B89
:102D30000029E8D130BC704710B5074979441831F3
:102D4000064C7C44163404E00A68081D1144884788
:102D50000146A142F8D110BD2C0000004C0000003B
:102D60004EF68851CEF20001086840F47000086009
:102D7000BFF34F8FBFF36F8F4FF00070E1EE100A7B
:102D8000704700007DFFFFFF9403000080000020DB
:102D900000000000DFE5FFFF8000000084FEFFFF71
:102DA000000000200000000000F00DF8002801D015
:102DB000FFF7C2FFAFF300800020AFF30080FDF704
:102DC000D7FF00F002F80120704700F001B80000C2
:102DD0000746384600F002F8FBE7000080B5AFF385
:102DE0000080024A11001820ABBEFBE7260002005B
:102DF0000548014603B4684680F30988AFF30080B4
:102E0000FFF7AEFFFFF7D0FFA5EDF5FE0348006822
:102E100050F47000014908607047000088ED00E040
:102E2000000000000000000001020304060708097A
:102E300001488047014800470D2E0008F12D000889
:102E40000006101600061016CAC2C7E941000000AD
:102E5000CAC2C7E942000000B3F5CABCBBAF00005C
:102E6000C8A5D7AAB6AF0000CDA3D6B9D7AA00008F
:102E70000000000001020304FFF7FEBFFFF7FEBFE2
:102E8000FFF7FEBFFFF7FEBFFFF7FEBFFFF7FEBF76
:102E9000FFF7FEBFFFF7FEBFFFF7FEBFFFF7FEBF66
:102EA000FFF7FEBFFFF7FEBFFFF7FEBFFFF7FEBF56
:102EB000FFF7FEBFFFF7FEBFFFF7FEBFFFF7FEBF46
:102EC000FFF7FEBFFFF7FEBFFFF7FEBFFFF7FEBF36
:102ED000FFF7FEBFFFF7FEBFFFF7FEBFFFF7FEBF26
:102EE000FFF7FEBFFFF7FEBFFFF7FEBFFFF7FEBF16
:102EF000FFF7FEBFFFF7FEBFFFF7FEBFFFF7FEBF06
:102F0000FFF7FEBFFFF7FEBFFFF7FEBFFFF7FEBFF5
:102F1000FFF7FEBFFFF7FEBFFFF7FEBFFFF7FEBFE5
:102F2000FFF7FEBFFFF7FEBFFFF7FEBFFFF7FEBFD5
:102F3000FFF7FEBFFFF7FEBFFFF7FEBFFFF7FEBFC5
:0C2F4000FFF7FEBFFFF7FEBFFFF7FEBF6C
:0400000508002DF1D1
:00000001FF
